{
  "contractName": "LoancoinToken",
  "abi": [
    {
      "constant": false,
      "inputs": [
        {
          "name": "_newSellPrice",
          "type": "uint256"
        },
        {
          "name": "_newBuyPrice",
          "type": "uint256"
        }
      ],
      "name": "setPrices",
      "outputs": [],
      "payable": false,
      "stateMutability": "nonpayable",
      "type": "function"
    },
    {
      "constant": true,
      "inputs": [],
      "name": "name",
      "outputs": [
        {
          "name": "",
          "type": "string"
        }
      ],
      "payable": false,
      "stateMutability": "view",
      "type": "function"
    },
    {
      "constant": false,
      "inputs": [
        {
          "name": "_lender",
          "type": "address"
        },
        {
          "name": "_loanContract_addr",
          "type": "address"
        },
        {
          "name": "_value",
          "type": "uint256"
        },
        {
          "name": "_ipfsHash",
          "type": "string"
        }
      ],
      "name": "payback",
      "outputs": [
        {
          "name": "success",
          "type": "bool"
        }
      ],
      "payable": false,
      "stateMutability": "nonpayable",
      "type": "function"
    },
    {
      "constant": false,
      "inputs": [
        {
          "name": "_spender",
          "type": "address"
        },
        {
          "name": "_value",
          "type": "uint256"
        }
      ],
      "name": "approve",
      "outputs": [
        {
          "name": "success",
          "type": "bool"
        }
      ],
      "payable": false,
      "stateMutability": "nonpayable",
      "type": "function"
    },
    {
      "constant": true,
      "inputs": [],
      "name": "totalSupply",
      "outputs": [
        {
          "name": "",
          "type": "uint256"
        }
      ],
      "payable": false,
      "stateMutability": "view",
      "type": "function"
    },
    {
      "constant": false,
      "inputs": [
        {
          "name": "_owner",
          "type": "address"
        },
        {
          "name": "_to",
          "type": "address"
        },
        {
          "name": "_value",
          "type": "uint256"
        }
      ],
      "name": "transferFrom",
      "outputs": [
        {
          "name": "success",
          "type": "bool"
        }
      ],
      "payable": false,
      "stateMutability": "nonpayable",
      "type": "function"
    },
    {
      "constant": true,
      "inputs": [
        {
          "name": "",
          "type": "address"
        }
      ],
      "name": "balances",
      "outputs": [
        {
          "name": "",
          "type": "uint256"
        }
      ],
      "payable": false,
      "stateMutability": "view",
      "type": "function"
    },
    {
      "constant": true,
      "inputs": [],
      "name": "decimals",
      "outputs": [
        {
          "name": "",
          "type": "uint8"
        }
      ],
      "payable": false,
      "stateMutability": "view",
      "type": "function"
    },
    {
      "constant": false,
      "inputs": [],
      "name": "kill",
      "outputs": [],
      "payable": false,
      "stateMutability": "nonpayable",
      "type": "function"
    },
    {
      "constant": false,
      "inputs": [
        {
          "name": "_spender",
          "type": "address"
        },
        {
          "name": "_loanContract_addr",
          "type": "address"
        },
        {
          "name": "_value",
          "type": "uint256"
        }
      ],
      "name": "approveCollateralWithdrawal",
      "outputs": [
        {
          "name": "success",
          "type": "bool"
        }
      ],
      "payable": false,
      "stateMutability": "nonpayable",
      "type": "function"
    },
    {
      "constant": true,
      "inputs": [],
      "name": "sellPrice",
      "outputs": [
        {
          "name": "",
          "type": "uint256"
        }
      ],
      "payable": false,
      "stateMutability": "view",
      "type": "function"
    },
    {
      "constant": true,
      "inputs": [],
      "name": "loanContractAddress",
      "outputs": [
        {
          "name": "",
          "type": "address"
        }
      ],
      "payable": false,
      "stateMutability": "view",
      "type": "function"
    },
    {
      "constant": true,
      "inputs": [],
      "name": "version",
      "outputs": [
        {
          "name": "",
          "type": "string"
        }
      ],
      "payable": false,
      "stateMutability": "view",
      "type": "function"
    },
    {
      "constant": true,
      "inputs": [
        {
          "name": "",
          "type": "address"
        },
        {
          "name": "",
          "type": "address"
        }
      ],
      "name": "allowances",
      "outputs": [
        {
          "name": "",
          "type": "uint256"
        }
      ],
      "payable": false,
      "stateMutability": "view",
      "type": "function"
    },
    {
      "constant": true,
      "inputs": [
        {
          "name": "_address",
          "type": "address"
        }
      ],
      "name": "balanceOf",
      "outputs": [
        {
          "name": "balance",
          "type": "uint256"
        }
      ],
      "payable": false,
      "stateMutability": "view",
      "type": "function"
    },
    {
      "constant": true,
      "inputs": [],
      "name": "buyPrice",
      "outputs": [
        {
          "name": "",
          "type": "uint256"
        }
      ],
      "payable": false,
      "stateMutability": "view",
      "type": "function"
    },
    {
      "constant": true,
      "inputs": [],
      "name": "symbol",
      "outputs": [
        {
          "name": "",
          "type": "string"
        }
      ],
      "payable": false,
      "stateMutability": "view",
      "type": "function"
    },
    {
      "constant": false,
      "inputs": [
        {
          "name": "_amountToMint",
          "type": "uint256"
        }
      ],
      "name": "mint",
      "outputs": [],
      "payable": false,
      "stateMutability": "nonpayable",
      "type": "function"
    },
    {
      "constant": false,
      "inputs": [],
      "name": "buy",
      "outputs": [
        {
          "name": "amount",
          "type": "uint256"
        }
      ],
      "payable": true,
      "stateMutability": "payable",
      "type": "function"
    },
    {
      "constant": false,
      "inputs": [
        {
          "name": "_to",
          "type": "address"
        },
        {
          "name": "_value",
          "type": "uint256"
        }
      ],
      "name": "transfer",
      "outputs": [
        {
          "name": "success",
          "type": "bool"
        }
      ],
      "payable": false,
      "stateMutability": "nonpayable",
      "type": "function"
    },
    {
      "constant": false,
      "inputs": [
        {
          "name": "_value",
          "type": "uint256"
        },
        {
          "name": "_loanHash",
          "type": "string"
        },
        {
          "name": "_data",
          "type": "bytes"
        },
        {
          "name": "_loan_address",
          "type": "address"
        }
      ],
      "name": "moveTokenAsCollateral",
      "outputs": [
        {
          "name": "success",
          "type": "bool"
        }
      ],
      "payable": false,
      "stateMutability": "nonpayable",
      "type": "function"
    },
    {
      "constant": false,
      "inputs": [
        {
          "name": "_to",
          "type": "address"
        },
        {
          "name": "_value",
          "type": "uint256"
        },
        {
          "name": "_data",
          "type": "bytes"
        }
      ],
      "name": "transfer",
      "outputs": [
        {
          "name": "success",
          "type": "bool"
        }
      ],
      "payable": false,
      "stateMutability": "nonpayable",
      "type": "function"
    },
    {
      "constant": false,
      "inputs": [
        {
          "name": "_loanHash",
          "type": "string"
        },
        {
          "name": "_loan_address",
          "type": "address"
        }
      ],
      "name": "cancelCollateral",
      "outputs": [
        {
          "name": "success",
          "type": "bool"
        }
      ],
      "payable": false,
      "stateMutability": "nonpayable",
      "type": "function"
    },
    {
      "constant": false,
      "inputs": [
        {
          "name": "_owner",
          "type": "address"
        },
        {
          "name": "_to",
          "type": "address"
        },
        {
          "name": "_value",
          "type": "uint256"
        },
        {
          "name": "_ipfsHash",
          "type": "string"
        },
        {
          "name": "_balance",
          "type": "uint256"
        }
      ],
      "name": "withdrawTokenFromContract",
      "outputs": [
        {
          "name": "success",
          "type": "bool"
        }
      ],
      "payable": false,
      "stateMutability": "nonpayable",
      "type": "function"
    },
    {
      "constant": true,
      "inputs": [],
      "name": "centralMinter",
      "outputs": [
        {
          "name": "",
          "type": "address"
        }
      ],
      "payable": false,
      "stateMutability": "view",
      "type": "function"
    },
    {
      "constant": true,
      "inputs": [
        {
          "name": "_owner",
          "type": "address"
        },
        {
          "name": "_spender",
          "type": "address"
        }
      ],
      "name": "allowance",
      "outputs": [
        {
          "name": "remaining",
          "type": "uint256"
        }
      ],
      "payable": false,
      "stateMutability": "view",
      "type": "function"
    },
    {
      "constant": false,
      "inputs": [
        {
          "name": "_amount",
          "type": "uint256"
        }
      ],
      "name": "sell",
      "outputs": [
        {
          "name": "revenue",
          "type": "uint256"
        }
      ],
      "payable": false,
      "stateMutability": "nonpayable",
      "type": "function"
    },
    {
      "constant": false,
      "inputs": [
        {
          "name": "_address",
          "type": "address"
        }
      ],
      "name": "updateLoanContractAddress",
      "outputs": [
        {
          "name": "success",
          "type": "bool"
        }
      ],
      "payable": false,
      "stateMutability": "nonpayable",
      "type": "function"
    },
    {
      "constant": false,
      "inputs": [
        {
          "name": "_newMinter",
          "type": "address"
        }
      ],
      "name": "transferMinter",
      "outputs": [],
      "payable": false,
      "stateMutability": "nonpayable",
      "type": "function"
    },
    {
      "inputs": [
        {
          "name": "_initialAmount",
          "type": "uint256"
        }
      ],
      "payable": false,
      "stateMutability": "nonpayable",
      "type": "constructor"
    },
    {
      "payable": true,
      "stateMutability": "payable",
      "type": "fallback"
    },
    {
      "anonymous": false,
      "inputs": [
        {
          "indexed": true,
          "name": "_from",
          "type": "address"
        },
        {
          "indexed": true,
          "name": "_to",
          "type": "address"
        },
        {
          "indexed": false,
          "name": "_value",
          "type": "uint256"
        },
        {
          "indexed": false,
          "name": "_data",
          "type": "bytes"
        }
      ],
      "name": "Transfer",
      "type": "event"
    },
    {
      "anonymous": false,
      "inputs": [
        {
          "indexed": true,
          "name": "_owner",
          "type": "address"
        },
        {
          "indexed": true,
          "name": "_spender",
          "type": "address"
        },
        {
          "indexed": false,
          "name": "_value",
          "type": "uint256"
        }
      ],
      "name": "Approval",
      "type": "event"
    }
  ],
  "bytecode": "0x606060405234156200001057600080fd5b6040516020806200309f83398101604052808051906020019091905050806000803373ffffffffffffffffffffffffffffffffffffffff1673ffffffffffffffffffffffffffffffffffffffff16815260200190815260200160002081905550806002819055506040805190810160405280600881526020017f4c6f616e636f696e00000000000000000000000000000000000000000000000081525060039080519060200190620000c4929190620001df565b506012600460006101000a81548160ff021916908360ff1602179055506040805190810160405280600381526020017f4c4e430000000000000000000000000000000000000000000000000000000000815250600590805190602001906200012e929190620001df565b506040805190810160405280600381526020017f302e310000000000000000000000000000000000000000000000000000000000815250600690805190602001906200017c929190620001df565b5033600760006101000a81548173ffffffffffffffffffffffffffffffffffffffff021916908373ffffffffffffffffffffffffffffffffffffffff160217905550655af3107a4000600981905550655a0a3bd53000600a81905550506200028e565b828054600181600116156101000203166002900490600052602060002090601f016020900481019282601f106200022257805160ff191683800117855562000253565b8280016001018555821562000253579182015b828111156200025257825182559160200191906001019062000235565b5b50905062000262919062000266565b5090565b6200028b91905b80821115620002875760008160009055506001016200026d565b5090565b90565b612e01806200029e6000396000f300606060405260043610610175576000357c0100000000000000000000000000000000000000000000000000000000900463ffffffff16806305fefda71461017a57806306fdde03146101a65780630787bce814610234578063095ea7b3146102f057806318160ddd1461034a57806323b872dd1461037357806327e235e3146103ec578063313ce5671461043957806341c0e1b51461046857806342913b3a1461047d5780634b750334146104f65780634fb545641461051f57806354fd4d501461057457806355b6ed5c1461060257806370a082311461066e5780638620410b146106bb57806395d89b41146106e4578063a0712d6814610772578063a6f2ae3a14610795578063a9059cbb146107b3578063b96891e51461080d578063be45fd62146108ed578063ced15a941461098a578063d9cd7e7a14610a1e578063d9f0187814610ae3578063dd62ed3e14610b38578063e4849b3214610ba4578063f6f44d7614610bdb578063fe99ad5a14610c2c575b600080fd5b341561018557600080fd5b6101a46004808035906020019091908035906020019091905050610c65565b005b34156101b157600080fd5b6101b9610cd3565b6040518080602001828103825283818151815260200191508051906020019080838360005b838110156101f95780820151818401526020810190506101de565b50505050905090810190601f1680156102265780820380516001836020036101000a031916815260200191505b509250505060405180910390f35b341561023f57600080fd5b6102d6600480803573ffffffffffffffffffffffffffffffffffffffff1690602001909190803573ffffffffffffffffffffffffffffffffffffffff1690602001909190803590602001909190803590602001908201803590602001908080601f01602080910402602001604051908101604052809392919081815260200183838082843782019150505050505091905050610d71565b604051808215151515815260200191505060405180910390f35b34156102fb57600080fd5b610330600480803573ffffffffffffffffffffffffffffffffffffffff169060200190919080359060200190919050506110f9565b604051808215151515815260200191505060405180910390f35b341561035557600080fd5b61035d6111eb565b6040518082815260200191505060405180910390f35b341561037e57600080fd5b6103d2600480803573ffffffffffffffffffffffffffffffffffffffff1690602001909190803573ffffffffffffffffffffffffffffffffffffffff169060200190919080359060200190919050506111f1565b604051808215151515815260200191505060405180910390f35b34156103f757600080fd5b610423600480803573ffffffffffffffffffffffffffffffffffffffff1690602001909190505061151d565b6040518082815260200191505060405180910390f35b341561044457600080fd5b61044c611535565b604051808260ff1660ff16815260200191505060405180910390f35b341561047357600080fd5b61047b611548565b005b341561048857600080fd5b6104dc600480803573ffffffffffffffffffffffffffffffffffffffff1690602001909190803573ffffffffffffffffffffffffffffffffffffffff169060200190919080359060200190919050506115df565b604051808215151515815260200191505060405180910390f35b341561050157600080fd5b610509611788565b6040518082815260200191505060405180910390f35b341561052a57600080fd5b61053261178e565b604051808273ffffffffffffffffffffffffffffffffffffffff1673ffffffffffffffffffffffffffffffffffffffff16815260200191505060405180910390f35b341561057f57600080fd5b6105876117b4565b6040518080602001828103825283818151815260200191508051906020019080838360005b838110156105c75780820151818401526020810190506105ac565b50505050905090810190601f1680156105f45780820380516001836020036101000a031916815260200191505b509250505060405180910390f35b341561060d57600080fd5b610658600480803573ffffffffffffffffffffffffffffffffffffffff1690602001909190803573ffffffffffffffffffffffffffffffffffffffff16906020019091905050611852565b6040518082815260200191505060405180910390f35b341561067957600080fd5b6106a5600480803573ffffffffffffffffffffffffffffffffffffffff16906020019091905050611877565b6040518082815260200191505060405180910390f35b34156106c657600080fd5b6106ce6118bf565b6040518082815260200191505060405180910390f35b34156106ef57600080fd5b6106f76118c5565b6040518080602001828103825283818151815260200191508051906020019080838360005b8381101561073757808201518184015260208101905061071c565b50505050905090810190601f1680156107645780820380516001836020036101000a031916815260200191505b509250505060405180910390f35b341561077d57600080fd5b6107936004808035906020019091905050611963565b005b61079d611b00565b6040518082815260200191505060405180910390f35b34156107be57600080fd5b6107f3600480803573ffffffffffffffffffffffffffffffffffffffff16906020019091908035906020019091905050611cff565b604051808215151515815260200191505060405180910390f35b341561081857600080fd5b6108d3600480803590602001909190803590602001908201803590602001908080601f0160208091040260200160405190810160405280939291908181526020018383808284378201915050505050509190803590602001908201803590602001908080601f0160208091040260200160405190810160405280939291908181526020018383808284378201915050505050509190803573ffffffffffffffffffffffffffffffffffffffff16906020019091905050611d24565b604051808215151515815260200191505060405180910390f35b34156108f857600080fd5b610970600480803573ffffffffffffffffffffffffffffffffffffffff1690602001909190803590602001909190803590602001908201803590602001908080601f01602080910402602001604051908101604052809392919081815260200183838082843782019150505050505091905050611fb0565b604051808215151515815260200191505060405180910390f35b341561099557600080fd5b610a04600480803590602001908201803590602001908080601f0160208091040260200160405190810160405280939291908181526020018383808284378201915050505050509190803573ffffffffffffffffffffffffffffffffffffffff16906020019091905050612524565b604051808215151515815260200191505060405180910390f35b3415610a2957600080fd5b610ac9600480803573ffffffffffffffffffffffffffffffffffffffff1690602001909190803573ffffffffffffffffffffffffffffffffffffffff1690602001909190803590602001909190803590602001908201803590602001908080601f0160208091040260200160405190810160405280939291908181526020018383808284378201915050505050509190803590602001909190505061287f565b604051808215151515815260200191505060405180910390f35b3415610aee57600080fd5b610af66129a6565b604051808273ffffffffffffffffffffffffffffffffffffffff1673ffffffffffffffffffffffffffffffffffffffff16815260200191505060405180910390f35b3415610b4357600080fd5b610b8e600480803573ffffffffffffffffffffffffffffffffffffffff1690602001909190803573ffffffffffffffffffffffffffffffffffffffff169060200190919050506129cc565b6040518082815260200191505060405180910390f35b3415610baf57600080fd5b610bc56004808035906020019091905050612a53565b6040518082815260200191505060405180910390f35b3415610be657600080fd5b610c12600480803573ffffffffffffffffffffffffffffffffffffffff16906020019091905050612c69565b604051808215151515815260200191505060405180910390f35b3415610c3757600080fd5b610c63600480803573ffffffffffffffffffffffffffffffffffffffff16906020019091905050612d11565b005b600760009054906101000a900473ffffffffffffffffffffffffffffffffffffffff1673ffffffffffffffffffffffffffffffffffffffff163373ffffffffffffffffffffffffffffffffffffffff16141515610cc157600080fd5b81600a81905550806009819055505050565b60038054600181600116156101000203166002900480601f016020809104026020016040519081016040528092919081815260200182805460018160011615610100020316600290048015610d695780601f10610d3e57610100808354040283529160200191610d69565b820191906000526020600020905b815481529060010190602001808311610d4c57829003601f168201915b505050505081565b60008060008573ffffffffffffffffffffffffffffffffffffffff1663cd549e44856000604051602001526040518263ffffffff167c01000000000000000000000000000000000000000000000000000000000281526004018080602001828103825283818151815260200191508051906020019080838360005b83811015610e07578082015181840152602081019050610dec565b50505050905090810190601f168015610e345780820380516001836020036101000a031916815260200191505b5092505050602060405180830381600087803b1515610e5257600080fd5b6102c65a03f11515610e6357600080fd5b5050506040518051905091506000821415610e7d57600080fd5b8490508185101515610f9f5781850390508573ffffffffffffffffffffffffffffffffffffffff1663b6ab35ea856004600080604051602001526040518463ffffffff167c010000000000000000000000000000000000000000000000000000000002815260040180806020018460ff168152602001838152602001828103825285818151815260200191508051906020019080838360005b83811015610f31578082015181840152602081019050610f16565b50505050905090810190601f168015610f5e5780820380516001836020036101000a031916815260200191505b50945050505050602060405180830381600087803b1515610f7e57600080fd5b6102c65a03f11515610f8f57600080fd5b50505060405180519050506110ae565b8573ffffffffffffffffffffffffffffffffffffffff1663b6ab35ea8560038486036000604051602001526040518463ffffffff167c010000000000000000000000000000000000000000000000000000000002815260040180806020018460ff168152602001838152602001828103825285818151815260200191508051906020019080838360005b83811015611044578082015181840152602081019050611029565b50505050905090810190601f1680156110715780820380516001836020036101000a031916815260200191505b50945050505050602060405180830381600087803b151561109157600080fd5b6102c65a03f115156110a257600080fd5b50505060405180519050505b6110ee87826040805190810160405280600781526020017f7061796261636b00000000000000000000000000000000000000000000000000815250611fb0565b505050949350505050565b600081600160003373ffffffffffffffffffffffffffffffffffffffff1673ffffffffffffffffffffffffffffffffffffffff16815260200190815260200160002060008573ffffffffffffffffffffffffffffffffffffffff1673ffffffffffffffffffffffffffffffffffffffff168152602001908152602001600020819055508273ffffffffffffffffffffffffffffffffffffffff163373ffffffffffffffffffffffffffffffffffffffff167f8c5be1e5ebec7d5bd14f71427d1e84f3dd0314c0f7b2291e5b200ac8c7c3b925846040518082815260200191505060405180910390a36001905092915050565b60025481565b6000816000808673ffffffffffffffffffffffffffffffffffffffff1673ffffffffffffffffffffffffffffffffffffffff16815260200190815260200160002054101561123e57600080fd5b6000808473ffffffffffffffffffffffffffffffffffffffff1673ffffffffffffffffffffffffffffffffffffffff16815260200190815260200160002054826000808673ffffffffffffffffffffffffffffffffffffffff1673ffffffffffffffffffffffffffffffffffffffff168152602001908152602001600020540110156112c957600080fd5b81600160008673ffffffffffffffffffffffffffffffffffffffff1673ffffffffffffffffffffffffffffffffffffffff16815260200190815260200160002060003373ffffffffffffffffffffffffffffffffffffffff1673ffffffffffffffffffffffffffffffffffffffff16815260200190815260200160002054101561135257600080fd5b816000808673ffffffffffffffffffffffffffffffffffffffff1673ffffffffffffffffffffffffffffffffffffffff16815260200190815260200160002060008282540392505081905550816000808573ffffffffffffffffffffffffffffffffffffffff1673ffffffffffffffffffffffffffffffffffffffff1681526020019081526020016000206000828254019250508190555081600160008673ffffffffffffffffffffffffffffffffffffffff1673ffffffffffffffffffffffffffffffffffffffff16815260200190815260200160002060003373ffffffffffffffffffffffffffffffffffffffff1673ffffffffffffffffffffffffffffffffffffffff168152602001908152602001600020600082825403925050819055508273ffffffffffffffffffffffffffffffffffffffff168473ffffffffffffffffffffffffffffffffffffffff167fe19260aff97b920c7df27010903aeb9c8d2be5d310a2c67824cf3f15396e4c168460405180828152602001806020018281038252600c8152602001807f7472616e7366657246726f6d00000000000000000000000000000000000000008152506020019250505060405180910390a3600190509392505050565b60006020528060005260406000206000915090505481565b600460009054906101000a900460ff1681565b600760009054906101000a900473ffffffffffffffffffffffffffffffffffffffff1673ffffffffffffffffffffffffffffffffffffffff163373ffffffffffffffffffffffffffffffffffffffff161415156115a457600080fd5b600760009054906101000a900473ffffffffffffffffffffffffffffffffffffffff1673ffffffffffffffffffffffffffffffffffffffff16ff5b6000600860009054906101000a900473ffffffffffffffffffffffffffffffffffffffff1673ffffffffffffffffffffffffffffffffffffffff163373ffffffffffffffffffffffffffffffffffffffff161415801561168d5750600760009054906101000a900473ffffffffffffffffffffffffffffffffffffffff1673ffffffffffffffffffffffffffffffffffffffff163373ffffffffffffffffffffffffffffffffffffffff1614155b1561169757600080fd5b81600160008573ffffffffffffffffffffffffffffffffffffffff1673ffffffffffffffffffffffffffffffffffffffff16815260200190815260200160002060008673ffffffffffffffffffffffffffffffffffffffff1673ffffffffffffffffffffffffffffffffffffffff168152602001908152602001600020819055508373ffffffffffffffffffffffffffffffffffffffff168373ffffffffffffffffffffffffffffffffffffffff167f8c5be1e5ebec7d5bd14f71427d1e84f3dd0314c0f7b2291e5b200ac8c7c3b925846040518082815260200191505060405180910390a3600190509392505050565b600a5481565b600860009054906101000a900473ffffffffffffffffffffffffffffffffffffffff1681565b60068054600181600116156101000203166002900480601f01602080910402602001604051908101604052809291908181526020018280546001816001161561010002031660029004801561184a5780601f1061181f5761010080835404028352916020019161184a565b820191906000526020600020905b81548152906001019060200180831161182d57829003601f168201915b505050505081565b6001602052816000526040600020602052806000526040600020600091509150505481565b60008060008373ffffffffffffffffffffffffffffffffffffffff1673ffffffffffffffffffffffffffffffffffffffff168152602001908152602001600020549050919050565b60095481565b60058054600181600116156101000203166002900480601f01602080910402602001604051908101604052809291908181526020018280546001816001161561010002031660029004801561195b5780601f106119305761010080835404028352916020019161195b565b820191906000526020600020905b81548152906001019060200180831161193e57829003601f168201915b505050505081565b600760009054906101000a900473ffffffffffffffffffffffffffffffffffffffff1673ffffffffffffffffffffffffffffffffffffffff163373ffffffffffffffffffffffffffffffffffffffff161415156119bf57600080fd5b80600080600760009054906101000a900473ffffffffffffffffffffffffffffffffffffffff1673ffffffffffffffffffffffffffffffffffffffff1673ffffffffffffffffffffffffffffffffffffffff1681526020019081526020016000206000828254019250508190555080600260008282540192505081905550600760009054906101000a900473ffffffffffffffffffffffffffffffffffffffff1673ffffffffffffffffffffffffffffffffffffffff163073ffffffffffffffffffffffffffffffffffffffff167fe19260aff97b920c7df27010903aeb9c8d2be5d310a2c67824cf3f15396e4c16836040518082815260200180602001828103825260048152602001807f6d696e74000000000000000000000000000000000000000000000000000000008152506020019250505060405180910390a350565b600060095434811515611b0f57fe5b04905080600080600760009054906101000a900473ffffffffffffffffffffffffffffffffffffffff1673ffffffffffffffffffffffffffffffffffffffff1673ffffffffffffffffffffffffffffffffffffffff168152602001908152602001600020541015611b7f57600080fd5b80600080600760009054906101000a900473ffffffffffffffffffffffffffffffffffffffff1673ffffffffffffffffffffffffffffffffffffffff1673ffffffffffffffffffffffffffffffffffffffff16815260200190815260200160002060008282540392505081905550806000803373ffffffffffffffffffffffffffffffffffffffff1673ffffffffffffffffffffffffffffffffffffffff168152602001908152602001600020600082825401925050819055503373ffffffffffffffffffffffffffffffffffffffff16600760009054906101000a900473ffffffffffffffffffffffffffffffffffffffff1673ffffffffffffffffffffffffffffffffffffffff167fe19260aff97b920c7df27010903aeb9c8d2be5d310a2c67824cf3f15396e4c16836040518082815260200180602001828103825260038152602001807f62757900000000000000000000000000000000000000000000000000000000008152506020019250505060405180910390a380905090565b6000611d1c83836020604051908101604052806000815250611fb0565b905092915050565b6000808273ffffffffffffffffffffffffffffffffffffffff166347d5ff3d33876000604051602001526040518363ffffffff167c0100000000000000000000000000000000000000000000000000000000028152600401808373ffffffffffffffffffffffffffffffffffffffff1673ffffffffffffffffffffffffffffffffffffffff16815260200180602001828103825283818151815260200191508051906020019080838360005b83811015611deb578082015181840152602081019050611dd0565b50505050905090810190601f168015611e185780820380516001836020036101000a031916815260200191505b509350505050602060405180830381600087803b1515611e3757600080fd5b6102c65a03f11515611e4857600080fd5b505050604051805190509050600081141515611e6357600080fd5b611e6e838786611fb0565b508273ffffffffffffffffffffffffffffffffffffffff1663aa4980853388886000604051602001526040518463ffffffff167c0100000000000000000000000000000000000000000000000000000000028152600401808473ffffffffffffffffffffffffffffffffffffffff1673ffffffffffffffffffffffffffffffffffffffff16815260200183815260200180602001828103825283818151815260200191508051906020019080838360005b83811015611f3a578082015181840152602081019050611f1f565b50505050905090810190601f168015611f675780820380516001836020036101000a031916815260200191505b50945050505050602060405180830381600087803b1515611f8757600080fd5b6102c65a03f11515611f9857600080fd5b50505060405180519050506001915050949350505050565b600080611fbc85612db1565b1561233057836000803373ffffffffffffffffffffffffffffffffffffffff1673ffffffffffffffffffffffffffffffffffffffff16815260200190815260200160002054101561200c57600080fd5b6000808673ffffffffffffffffffffffffffffffffffffffff1673ffffffffffffffffffffffffffffffffffffffff16815260200190815260200160002054846000808873ffffffffffffffffffffffffffffffffffffffff1673ffffffffffffffffffffffffffffffffffffffff1681526020019081526020016000205401101561209757600080fd5b836000803373ffffffffffffffffffffffffffffffffffffffff1673ffffffffffffffffffffffffffffffffffffffff16815260200190815260200160002060008282540392505081905550836000808773ffffffffffffffffffffffffffffffffffffffff1673ffffffffffffffffffffffffffffffffffffffff168152602001908152602001600020600082825401925050819055508490508073ffffffffffffffffffffffffffffffffffffffff1663c0ee0b8a3386866040518463ffffffff167c0100000000000000000000000000000000000000000000000000000000028152600401808473ffffffffffffffffffffffffffffffffffffffff1673ffffffffffffffffffffffffffffffffffffffff16815260200183815260200180602001828103825283818151815260200191508051906020019080838360005b838110156121f45780820151818401526020810190506121d9565b50505050905090810190601f1680156122215780820380516001836020036101000a031916815260200191505b50945050505050600060405180830381600087803b151561224157600080fd5b6102c65a03f1151561225257600080fd5b5050508473ffffffffffffffffffffffffffffffffffffffff163373ffffffffffffffffffffffffffffffffffffffff167fe19260aff97b920c7df27010903aeb9c8d2be5d310a2c67824cf3f15396e4c1686866040518083815260200180602001828103825283818151815260200191508051906020019080838360005b838110156122ec5780820151818401526020810190506122d1565b50505050905090810190601f1680156123195780820380516001836020036101000a031916815260200191505b50935050505060405180910390a36001915061251c565b836000803373ffffffffffffffffffffffffffffffffffffffff1673ffffffffffffffffffffffffffffffffffffffff16815260200190815260200160002054101561237b57600080fd5b6000808673ffffffffffffffffffffffffffffffffffffffff1673ffffffffffffffffffffffffffffffffffffffff16815260200190815260200160002054846000808873ffffffffffffffffffffffffffffffffffffffff1673ffffffffffffffffffffffffffffffffffffffff1681526020019081526020016000205401101561240657600080fd5b836000803373ffffffffffffffffffffffffffffffffffffffff1673ffffffffffffffffffffffffffffffffffffffff16815260200190815260200160002060008282540392505081905550836000808773ffffffffffffffffffffffffffffffffffffffff1673ffffffffffffffffffffffffffffffffffffffff168152602001908152602001600020600082825401925050819055508473ffffffffffffffffffffffffffffffffffffffff163373ffffffffffffffffffffffffffffffffffffffff167fe19260aff97b920c7df27010903aeb9c8d2be5d310a2c67824cf3f15396e4c168660405180828152602001806020018281038252600081526020016020019250505060405180910390a3600191505b509392505050565b6000808273ffffffffffffffffffffffffffffffffffffffff166347d5ff3d33866000604051602001526040518363ffffffff167c0100000000000000000000000000000000000000000000000000000000028152600401808373ffffffffffffffffffffffffffffffffffffffff1673ffffffffffffffffffffffffffffffffffffffff16815260200180602001828103825283818151815260200191508051906020019080838360005b838110156125eb5780820151818401526020810190506125d0565b50505050905090810190601f1680156126185780820380516001836020036101000a031916815260200191505b509350505050602060405180830381600087803b151561263757600080fd5b6102c65a03f1151561264857600080fd5b505050604051805190509050600081141561266257600080fd5b80600160008573ffffffffffffffffffffffffffffffffffffffff1673ffffffffffffffffffffffffffffffffffffffff16815260200190815260200160002060003373ffffffffffffffffffffffffffffffffffffffff1673ffffffffffffffffffffffffffffffffffffffff168152602001908152602001600020819055508273ffffffffffffffffffffffffffffffffffffffff166338da452833866000604051602001526040518363ffffffff167c0100000000000000000000000000000000000000000000000000000000028152600401808373ffffffffffffffffffffffffffffffffffffffff1673ffffffffffffffffffffffffffffffffffffffff16815260200180602001828103825283818151815260200191508051906020019080838360005b838110156127a757808201518184015260208101905061278c565b50505050905090810190601f1680156127d45780820380516001836020036101000a031916815260200191505b509350505050602060405180830381600087803b15156127f357600080fd5b6102c65a03f1151561280457600080fd5b50505060405180519050503373ffffffffffffffffffffffffffffffffffffffff168373ffffffffffffffffffffffffffffffffffffffff167f8c5be1e5ebec7d5bd14f71427d1e84f3dd0314c0f7b2291e5b200ac8c7c3b925836040518082815260200191505060405180910390a3600191505092915050565b60008573ffffffffffffffffffffffffffffffffffffffff1663b6ab35ea846002856000604051602001526040518463ffffffff167c010000000000000000000000000000000000000000000000000000000002815260040180806020018460ff168152602001838152602001828103825285818151815260200191508051906020019080838360005b83811015612924578082015181840152602081019050612909565b50505050905090810190601f1680156129515780820380516001836020036101000a031916815260200191505b50945050505050602060405180830381600087803b151561297157600080fd5b6102c65a03f1151561298257600080fd5b50505060405180519050506129988686866111f1565b506001905095945050505050565b600760009054906101000a900473ffffffffffffffffffffffffffffffffffffffff1681565b6000600160008473ffffffffffffffffffffffffffffffffffffffff1673ffffffffffffffffffffffffffffffffffffffff16815260200190815260200160002060008373ffffffffffffffffffffffffffffffffffffffff1673ffffffffffffffffffffffffffffffffffffffff16815260200190815260200160002054905092915050565b6000816000803373ffffffffffffffffffffffffffffffffffffffff1673ffffffffffffffffffffffffffffffffffffffff168152602001908152602001600020541015612aa057600080fd5b81600080600760009054906101000a900473ffffffffffffffffffffffffffffffffffffffff1673ffffffffffffffffffffffffffffffffffffffff1673ffffffffffffffffffffffffffffffffffffffff16815260200190815260200160002060008282540192505081905550816000803373ffffffffffffffffffffffffffffffffffffffff1673ffffffffffffffffffffffffffffffffffffffff16815260200190815260200160002060008282540392505081905550600a54820290503373ffffffffffffffffffffffffffffffffffffffff166108fc829081150290604051600060405180830381858888f193505050501515612ba157600080fd5b600760009054906101000a900473ffffffffffffffffffffffffffffffffffffffff1673ffffffffffffffffffffffffffffffffffffffff163373ffffffffffffffffffffffffffffffffffffffff167fe19260aff97b920c7df27010903aeb9c8d2be5d310a2c67824cf3f15396e4c16846040518082815260200180602001828103825260048152602001807f73656c6c000000000000000000000000000000000000000000000000000000008152506020019250505060405180910390a3809050919050565b6000600760009054906101000a900473ffffffffffffffffffffffffffffffffffffffff1673ffffffffffffffffffffffffffffffffffffffff163373ffffffffffffffffffffffffffffffffffffffff16141515612cc757600080fd5b81600860006101000a81548173ffffffffffffffffffffffffffffffffffffffff021916908373ffffffffffffffffffffffffffffffffffffffff16021790555060019050919050565b600760009054906101000a900473ffffffffffffffffffffffffffffffffffffffff1673ffffffffffffffffffffffffffffffffffffffff163373ffffffffffffffffffffffffffffffffffffffff16141515612d6d57600080fd5b80600760006101000a81548173ffffffffffffffffffffffffffffffffffffffff021916908373ffffffffffffffffffffffffffffffffffffffff16021790555050565b600080823b90506000811115612dca5760019150612dcf565b600091505b509190505600a165627a7a7230582002a0738c0d00d42903ae34c86dda889049274abe90ba117f1ede280bf1b03f630029",
  "source": "pragma solidity ^0.4.18;\n\n// Loan Contract\ncontract LoancoinContract {\n\n  // collateral for each loan contract (ipfs hash)\n  mapping (address => mapping (string => uint256)) private collaterals;\n\n  // loan contract template\n  // save only signature and states. detail can be found on ipfs file\n  struct LoanContract {\n      address lender;\n      address borrower;\n      string lender_sig;\n      string borrower_sig;\n      uint256 deadline; // -> deadline, 1513056825\n      uint8 status;\n      uint256 balance; // -> updated each month\n      uint256 balanceUpdatedAt; // > to prevent double increase\n  }\n\n  // access to loan contract by mapping\n  mapping (string => LoanContract) private loanContracts;\n\n  // creater address\n  address public oracleAddress;\n  address public loancoinAddress;\n\n  // Modifiers\n  modifier onlyOracle {\n    if (msg.sender != oracleAddress) revert();\n    _;\n  }\n\n  // Modifiers\n  modifier onlyOracleOrLoancoin {\n    if (msg.sender != loancoinAddress && msg.sender != oracleAddress) revert();\n    _;\n  }\n\n  // Constructor\n  function LoancoinContract() public {\n    oracleAddress = msg.sender;\n  }\n\n  // creat new laoncoin contract\n  function cerateLoanContract (\n      string _ipfsHash,\n      address _lender,\n      address _borrower,\n      uint256 _deadline\n      ) public returns (bool success) {\n\n      loanContracts[_ipfsHash] = LoanContract(\n          _lender,\n          _borrower,\n          \"\",\n          \"\",\n          _deadline,\n          0,\n          0,\n          0);\n\n      return true;\n  }\n\n  // transfer Oracle\n  function transferOracle(address _newOracle) public onlyOracle returns (bool success) {\n    oracleAddress = _newOracle;\n    return true;\n  }\n\n  // update loancoin address\n  function updateLoancoinAddress(address _address) public onlyOracle returns (bool success) {\n    loancoinAddress = _address;\n    return true;\n  }\n\n  // return loan coin status with ipfs hash\n  function loancontractOf(string _ipfsHash) constant public returns (\n      address lender,\n      address borrower,\n      string lender_sig,\n      string borrower_sig,\n      uint256 deadline,\n      uint8 status,\n      uint256 balance\n      ) {\n\n      LoanContract storage lc = loanContracts[_ipfsHash];\n\n      return ( lc.lender, lc.borrower, lc.lender_sig, lc.borrower_sig, lc.deadline, lc.status, lc.balance );\n  }\n\n  // balance of\n  function loancontractBalanceOf(string _ipfsHash) constant public returns (uint256 balance) {\n      LoanContract storage lc = loanContracts[_ipfsHash];\n      return ( lc.balance );\n  }\n\n  // set lenders signature\n  function setLenderSig (\n      string _ipfsHash,\n      string _lender_sig,\n      address _token_addr,\n      string _loanHash\n      ) onlyOracle public returns (bool success) {\n\n      LoanContract storage lc = loanContracts[_ipfsHash];\n\n      if (lc.status != 0) revert();\n\n      lc.lender_sig = _lender_sig;\n\n      if ( bytes(lc.lender_sig).length != 0  && bytes(lc.borrower_sig).length != 0 && lc.status == 0 ) {\n\n          // if there is no collateral, then revert\n          uint256 _value = collateralOf(lc.lender, _loanHash);\n          if ( _value == 0 ) revert();\n\n          // we do not have collateral any more\n          deleteCollateralOf(lc.lender, _loanHash);\n\n          // allow\n          LoancoinToken(_token_addr).approveCollateralWithdrawal(\n              lc.borrower,\n              this,\n              _value);\n\n          lc.status = 1;\n      }\n\n      return true;\n  }\n\n  // set borrowers signature\n  // set lenders signature\n  function setBorrowerSig (\n      string _ipfsHash,\n      string _borrower_sig,\n      address _token_addr,\n      string _loanHash\n      ) onlyOracle public returns (bool success) {\n\n      LoanContract storage lc = loanContracts[_ipfsHash];\n\n      if (lc.status != 0) revert();\n\n      lc.borrower_sig = _borrower_sig;\n\n      if ( bytes(lc.lender_sig).length != 0  && bytes(lc.borrower_sig).length != 0 && lc.status == 0 ) {\n\n          // if there is no collateral, then revert\n          uint256 _value = collateralOf(lc.lender, _loanHash);\n          if ( _value == 0 ) revert();\n\n          // we do not have collateral any more\n          deleteCollateralOf(lc.lender, _loanHash);\n\n          // allow\n          LoancoinToken(_token_addr).approveCollateralWithdrawal(\n              lc.borrower,\n              this,\n              _value);\n\n           lc.status = 1;\n      }\n\n      return true;\n  }\n\n  // loacoin contract < only oracle should be able to update\n  // 0: initialized, 1: signed, 2: withdrawed, 3: active, 4: completed, 5: default\n  function updateLoanState(\n    string _ipfsHash,\n    uint8 _status,\n    uint256 _value\n    ) onlyOracleOrLoancoin public returns (bool success) {\n\n      LoanContract storage lc = loanContracts[_ipfsHash];\n\n      if ( now < lc.balanceUpdatedAt + 3600  ) revert();\n      if ( now > lc.deadline && _status < 5 ) revert();\n\n      if (lc.status == 4) revert();\n      if (lc.status == 5) revert();\n\n      lc.status = _status;\n      lc.balance = _value;\n\n      return true;\n  }\n\n  // retrieve collateral of address and loan hash\n  function collateralOf(address _address, string _loanHash) constant public returns (uint256 remaining) {\n    return collaterals[_address][_loanHash];\n  }\n\n  // delete collateral of  address and loan hash\n  function deleteCollateralOf(address _address, string _loanHash) onlyOracleOrLoancoin public returns (bool success) {\n    delete collaterals[_address][_loanHash];\n    return true;\n  }\n\n  // fallback for loancoin\n  function setCollateral(\n    address _address,\n    uint256 _value,\n    string _loanHash\n    ) onlyOracleOrLoancoin public  returns (bool success) {\n\n    if ( collaterals[_address][_loanHash] != 0 ) revert();\n\n    // set as collateral\n    collaterals[_address][_loanHash] = _value;\n\n    return true;\n  }\n\n  // fallback for loancoin\n  function tokenFallback(address _address, uint256 _value, bytes _data) public {\n  }\n\n  // kill contract itself\n  function kill() onlyOracle public {\n      selfdestruct(oracleAddress);\n  }\n\n  // fallback for ether\n  function() payable public {\n    revert();\n  }\n}\n\ncontract LoancoinToken {\n\n  /*mapping (address => mapping (string => uint256)) private collaterals;*/\n\n  // ERC20 State\n  mapping (address => uint256) public balances;\n  mapping (address => mapping (address => uint256)) public allowances;\n  uint256 public totalSupply;\n\n  // Human State\n  string public name;\n  uint8 public decimals;\n  string public symbol;\n  string public version;\n\n  // Minter State\n  address public centralMinter;\n\n  // Laoncoin Contract address\n  address public loanContractAddress;\n\n  // Backed By Ether State\n  uint256 public buyPrice;\n  uint256 public sellPrice;\n\n  // Modifiers\n  modifier onlyMinter {\n    if (msg.sender != centralMinter) revert();\n    _;\n  }\n\n  // Modifiers\n  modifier onlyMinterOrLoanContract {\n    if (msg.sender != loanContractAddress && msg.sender != centralMinter) revert();\n    _;\n  }\n\n  // update loancoin address\n  function updateLoanContractAddress(address _address) public onlyMinter returns (bool success) {\n    loanContractAddress = _address;\n    return true;\n  }\n\n  // ERC20 Events\n  event Transfer(address indexed _from, address indexed _to, uint256 _value, bytes _data);\n  event Approval(address indexed _owner, address indexed _spender, uint256 _value);\n\n  // Constructor\n  function LoancoinToken(uint256 _initialAmount) public {\n    balances[msg.sender] = _initialAmount;\n    totalSupply = _initialAmount;\n    name = \"Loancoin\";\n    decimals = 18;\n    symbol = \"LNC\";\n    version = \"0.1\";\n    centralMinter = msg.sender;\n    buyPrice = 100000000000000;\n    sellPrice = 99000000000000;\n  }\n\n  function isContract(address _address) private view returns (bool is_contract) {\n      uint length;\n      assembly {\n          length := extcodesize(_address)\n      }\n      if (length > 0) {\n          return true;\n      } else {\n          return false;\n      }\n  }\n\n  // ERC20 Methods\n  function balanceOf(address _address) constant public returns (uint256 balance) {\n    return balances[_address];\n  }\n\n  function allowance(address _owner, address _spender) constant public returns (uint256 remaining) {\n    return allowances[_owner][_spender];\n  }\n\n  // ERC 20\n  function transfer(address _to, uint256 _value) public returns (bool success) {\n    return transfer(_to, _value, \"\");\n  }\n\n  // ERC 223\n  function transfer(address _to, uint256 _value, bytes _data) public returns (bool success) {\n\n    if (isContract(_to)) {\n\n      if(balances[msg.sender] < _value) revert();\n      if(balances[_to] + _value < balances[_to]) revert();\n      balances[msg.sender] -= _value;\n      balances[_to] += _value;\n\n      LoancoinContract receiver = LoancoinContract(_to);\n      receiver.tokenFallback(msg.sender, _value, _data);\n\n      Transfer(msg.sender, _to, _value, _data);\n      return true;\n    } else {\n      // nomal address\n      if(balances[msg.sender] < _value) revert();\n      if(balances[_to] + _value < balances[_to]) revert();\n      balances[msg.sender] -= _value;\n      balances[_to] += _value;\n      Transfer(msg.sender, _to, _value, \"\");\n      return true;\n    }\n  }\n\n  function payback(\n    address _lender,\n    address _loanContract_addr,\n    uint256 _value,\n    string _ipfsHash\n    ) public returns (bool success) {\n\n    // update loan contract status\n    uint256 loan_balance = LoancoinContract(_loanContract_addr).loancontractBalanceOf(_ipfsHash);\n    if ( loan_balance == 0 ) revert();\n\n    // if dealline passed..\n\n    uint256 difference = _value;\n    if ( _value >= loan_balance ) {\n      difference = _value - loan_balance;\n      LoancoinContract(_loanContract_addr).updateLoanState(_ipfsHash, 4, 0);\n    } else {\n      LoancoinContract(_loanContract_addr).updateLoanState(_ipfsHash, 3, loan_balance - difference);\n    }\n\n    // transfer token\n    transfer(_lender, difference, \"payback\");\n  }\n\n  function approve(address _spender, uint256 _value) public returns (bool success) {\n    allowances[msg.sender][_spender] = _value;\n    Approval(msg.sender, _spender, _value);\n    return true;\n  }\n\n  function cancelCollateral(\n      string _loanHash,\n      address _loan_address\n      ) public returns (bool success) {\n\n    // if msg.sender has enough token on collaterals,\n    // then, msg.sender can give permission to withdrow token from contract\n\n    // if there is no collateral, then revert\n    uint256 _value = LoancoinContract(_loan_address).collateralOf(msg.sender, _loanHash);\n    if ( _value == 0 ) revert();\n\n    // update allowance\n    allowances[_loan_address][msg.sender] = _value;\n\n    // we do not have collateral any more\n    LoancoinContract(_loan_address).deleteCollateralOf(msg.sender, _loanHash);\n\n    Approval(_loan_address, msg.sender, _value);\n\n    return true;\n  }\n\n  function approveCollateralWithdrawal  (\n      address _spender,\n      address _loanContract_addr,\n      uint256 _value\n      ) onlyMinterOrLoanContract public returns (bool success) {\n    // update allowance\n    allowances[_loanContract_addr][_spender] = _value;\n\n    Approval(_loanContract_addr, _spender, _value);\n\n    return true;\n  }\n\n  function moveTokenAsCollateral(uint256 _value, string _loanHash, bytes _data, address _loan_address) public returns (bool success) {\n\n    // if the _loanhash has collateral, revert\n    uint256 collateral_value = LoancoinContract(_loan_address).collateralOf(msg.sender, _loanHash);\n    if ( collateral_value != 0 ) revert();\n\n    // transfer token\n    transfer(_loan_address, _value, _data);\n\n    // set as collateral\n    LoancoinContract(_loan_address).setCollateral(msg.sender, _value, _loanHash);\n\n    return true;\n  }\n\n  function transferFrom(address _owner, address _to, uint256 _value) public returns (bool success) {\n    if(balances[_owner] < _value) revert();\n    if(balances[_to] + _value < balances[_to]) revert();\n    if(allowances[_owner][msg.sender] < _value) revert();\n    balances[_owner] -= _value;\n    balances[_to] += _value;\n    allowances[_owner][msg.sender] -= _value;\n\n    Transfer(_owner, _to, _value, \"transferFrom\");\n    return true;\n  }\n\n  function withdrawTokenFromContract (\n    address _owner,\n    address _to,\n    uint256 _value,\n    string _ipfsHash,\n    uint256 _balance\n    ) public returns (bool success) {\n\n    // update status\n    LoancoinContract(_owner).updateLoanState(_ipfsHash, 2, _balance);\n\n    // transfer money\n    transferFrom(_owner, _to, _value);\n\n    return true;\n  }\n  \n  // Minter Functions\n  function mint(uint256 _amountToMint) public onlyMinter {\n    balances[centralMinter] += _amountToMint;\n    totalSupply += _amountToMint;\n    Transfer(this, centralMinter, _amountToMint, \"mint\");\n  }\n\n  function transferMinter(address _newMinter) public onlyMinter {\n    centralMinter = _newMinter;\n  }\n\n  // Backed By Ether Methods\n  // Must create the contract so that it has enough Ether to buy back ALL tokens on the market, or else the contract will be insolvent and users won't be able to sell their tokens\n  function setPrices(uint256 _newSellPrice, uint256 _newBuyPrice) public onlyMinter {\n    sellPrice = _newSellPrice;\n    buyPrice = _newBuyPrice;\n  }\n\n  function buy() payable public returns (uint amount) {\n    amount = msg.value / buyPrice;\n    if(balances[centralMinter] < amount) revert();            // Validate there are enough tokens minted\n    balances[centralMinter] -= amount;\n    balances[msg.sender] += amount;\n    Transfer(centralMinter, msg.sender, amount, \"buy\");\n    return amount;\n  }\n\n  function sell(uint _amount) public returns (uint revenue) {\n    if (balances[msg.sender] < _amount) revert();            // Validate sender has enough tokens to sell\n    balances[centralMinter] += _amount;\n    balances[msg.sender] -= _amount;\n    revenue = _amount * sellPrice;\n    if (!msg.sender.send(revenue)) {\n      revert();\n    } else {\n      Transfer(msg.sender, centralMinter, _amount, \"sell\");\n      return revenue;\n    }\n  }\n\n  // kill contract itself\n  function kill() onlyMinter public {\n      selfdestruct(centralMinter);\n  }\n\n  // fallback for ether\n  function() payable public {\n    revert();\n  }\n}\n",
  "sourcePath": "/home/kouohhashi/smart_contract_test/contracts/LoancoinContract.sol",
  "compiler": {
    "name": "solc",
    "version": "0.4.18+commit.9cf6e910.Emscripten.clang"
  },
  "schemaVersion": "1.0.1",
  "updatedAt": "2017-12-14T04:59:45.273Z"
}