{
  "contractName": "CreditHydraToken",
  "abi": [
    {
      "constant": false,
      "inputs": [],
      "name": "kill",
      "outputs": [],
      "payable": false,
      "stateMutability": "nonpayable",
      "type": "function"
    },
    {
      "constant": true,
      "inputs": [],
      "name": "retrieveUportInfo",
      "outputs": [
        {
          "name": "ipfs_hash_of_uport_information",
          "type": "string"
        }
      ],
      "payable": false,
      "stateMutability": "view",
      "type": "function"
    },
    {
      "constant": true,
      "inputs": [
        {
          "name": "",
          "type": "address"
        }
      ],
      "name": "ipfs_hash_of_uport_informations",
      "outputs": [
        {
          "name": "",
          "type": "string"
        }
      ],
      "payable": false,
      "stateMutability": "view",
      "type": "function"
    },
    {
      "constant": true,
      "inputs": [],
      "name": "oracleAddress",
      "outputs": [
        {
          "name": "",
          "type": "address"
        }
      ],
      "payable": false,
      "stateMutability": "view",
      "type": "function"
    },
    {
      "constant": false,
      "inputs": [
        {
          "name": "_uport_ipfs_hash",
          "type": "string"
        },
        {
          "name": "_address",
          "type": "address"
        }
      ],
      "name": "updateUportInfoFromOracle",
      "outputs": [
        {
          "name": "success",
          "type": "bool"
        }
      ],
      "payable": false,
      "stateMutability": "nonpayable",
      "type": "function"
    },
    {
      "constant": false,
      "inputs": [
        {
          "name": "_newOracle",
          "type": "address"
        }
      ],
      "name": "transferOracle",
      "outputs": [],
      "payable": false,
      "stateMutability": "nonpayable",
      "type": "function"
    },
    {
      "constant": false,
      "inputs": [
        {
          "name": "_uport_ipfs_hash",
          "type": "string"
        }
      ],
      "name": "updateUportInfo",
      "outputs": [
        {
          "name": "success",
          "type": "bool"
        }
      ],
      "payable": false,
      "stateMutability": "nonpayable",
      "type": "function"
    },
    {
      "inputs": [],
      "payable": false,
      "stateMutability": "nonpayable",
      "type": "constructor"
    },
    {
      "payable": true,
      "stateMutability": "payable",
      "type": "fallback"
    }
  ],
  "bytecode": "0x6060604052341561000f57600080fd5b33600160006101000a81548173ffffffffffffffffffffffffffffffffffffffff021916908373ffffffffffffffffffffffffffffffffffffffff1602179055506108638061005f6000396000f300606060405260043610610083576000357c0100000000000000000000000000000000000000000000000000000000900463ffffffff16806341c0e1b5146100885780634f96ab8e1461009d5780636a35f0791461012b578063a89ae4ba146101dd578063b9b65e6114610232578063e7326806146102c6578063f216bfd6146102ff575b600080fd5b341561009357600080fd5b61009b610374565b005b34156100a857600080fd5b6100b061040b565b6040518080602001828103825283818151815260200191508051906020019080838360005b838110156100f05780820151818401526020810190506100d5565b50505050905090810190601f16801561011d5780820380516001836020036101000a031916815260200191505b509250505060405180910390f35b341561013657600080fd5b610162600480803573ffffffffffffffffffffffffffffffffffffffff169060200190919050506104ef565b6040518080602001828103825283818151815260200191508051906020019080838360005b838110156101a2578082015181840152602081019050610187565b50505050905090810190601f1680156101cf5780820380516001836020036101000a031916815260200191505b509250505060405180910390f35b34156101e857600080fd5b6101f061059f565b604051808273ffffffffffffffffffffffffffffffffffffffff1673ffffffffffffffffffffffffffffffffffffffff16815260200191505060405180910390f35b341561023d57600080fd5b6102ac600480803590602001908201803590602001908080601f0160208091040260200160405190810160405280939291908181526020018383808284378201915050505050509190803573ffffffffffffffffffffffffffffffffffffffff169060200190919050506105c5565b604051808215151515815260200191505060405180910390f35b34156102d157600080fd5b6102fd600480803573ffffffffffffffffffffffffffffffffffffffff16906020019091905050610680565b005b341561030a57600080fd5b61035a600480803590602001908201803590602001908080601f01602080910402602001604051908101604052809392919081815260200183838082843782019150505050505091905050610720565b604051808215151515815260200191505060405180910390f35b600160009054906101000a900473ffffffffffffffffffffffffffffffffffffffff1673ffffffffffffffffffffffffffffffffffffffff163373ffffffffffffffffffffffffffffffffffffffff161415156103d057600080fd5b600160009054906101000a900473ffffffffffffffffffffffffffffffffffffffff1673ffffffffffffffffffffffffffffffffffffffff16ff5b61041361077e565b6000803373ffffffffffffffffffffffffffffffffffffffff1673ffffffffffffffffffffffffffffffffffffffff1681526020019081526020016000208054600181600116156101000203166002900480601f0160208091040260200160405190810160405280929190818152602001828054600181600116156101000203166002900480156104e55780601f106104ba576101008083540402835291602001916104e5565b820191906000526020600020905b8154815290600101906020018083116104c857829003601f168201915b5050505050905090565b60006020528060005260406000206000915090508054600181600116156101000203166002900480601f0160208091040260200160405190810160405280929190818152602001828054600181600116156101000203166002900480156105975780601f1061056c57610100808354040283529160200191610597565b820191906000526020600020905b81548152906001019060200180831161057a57829003601f168201915b505050505081565b600160009054906101000a900473ffffffffffffffffffffffffffffffffffffffff1681565b6000600160009054906101000a900473ffffffffffffffffffffffffffffffffffffffff1673ffffffffffffffffffffffffffffffffffffffff163373ffffffffffffffffffffffffffffffffffffffff1614151561062357600080fd5b826000808473ffffffffffffffffffffffffffffffffffffffff1673ffffffffffffffffffffffffffffffffffffffff1681526020019081526020016000209080519060200190610675929190610792565b506001905092915050565b600160009054906101000a900473ffffffffffffffffffffffffffffffffffffffff1673ffffffffffffffffffffffffffffffffffffffff163373ffffffffffffffffffffffffffffffffffffffff161415156106dc57600080fd5b80600160006101000a81548173ffffffffffffffffffffffffffffffffffffffff021916908373ffffffffffffffffffffffffffffffffffffffff16021790555050565b6000816000803373ffffffffffffffffffffffffffffffffffffffff1673ffffffffffffffffffffffffffffffffffffffff1681526020019081526020016000209080519060200190610774929190610792565b5060019050919050565b602060405190810160405280600081525090565b828054600181600116156101000203166002900490600052602060002090601f016020900481019282601f106107d357805160ff1916838001178555610801565b82800160010185558215610801579182015b828111156108005782518255916020019190600101906107e5565b5b50905061080e9190610812565b5090565b61083491905b80821115610830576000816000905550600101610818565b5090565b905600a165627a7a7230582079fb2cfce81d55b876e9c10889737caff91b9dc0f221a50085a8cd0cb70ccfc50029",
  "source": "pragma solidity ^0.4.18;\n\ncontract CreditHydraToken {\n\n  mapping (address => string) public ipfs_hash_of_uport_informations;\n\n  // Minter State\n  address public oracleAddress;\n\n  // Modifiers\n  modifier onlyOracle {\n    if (msg.sender != oracleAddress) revert();\n    _;\n  }\n\n  // Constructor\n  function CreditHydraToken() public {\n    oracleAddress = msg.sender;\n  }\n\n  // transfer owner\n  function transferOracle(address _newOracle) public onlyOracle {\n    oracleAddress = _newOracle;\n  }\n\n  // update uport ipfs hash\n  function updateUportInfo( string _uport_ipfs_hash ) public returns (bool success) {\n    ipfs_hash_of_uport_informations[msg.sender] = _uport_ipfs_hash;\n    return true;\n  }\n\n  // update uport ipfs hash\n  function updateUportInfoFromOracle( string _uport_ipfs_hash, address _address ) public onlyOracle returns (bool success) {\n    ipfs_hash_of_uport_informations[_address] = _uport_ipfs_hash;\n    return true;\n  }\n\n  // retrieve uport information\n  function retrieveUportInfo() constant public returns (string ipfs_hash_of_uport_information ) {\n    return ipfs_hash_of_uport_informations[msg.sender];\n  }\n\n  // kill contract itself\n  function kill() onlyOracle public {\n      selfdestruct(oracleAddress);\n  }\n\n  // fallback for ether\n  function() payable public {\n    revert();\n  }\n}\n",
  "sourcePath": "/home/kouohhashi/smart_contract_test/contracts/CreditHydraToken.sol",
  "compiler": {
    "name": "solc",
    "version": "0.4.18+commit.9cf6e910.Emscripten.clang"
  },
  "schemaVersion": "1.0.1",
  "updatedAt": "2017-12-14T04:59:45.231Z"
}